:020000041000EA
:1000000000B5324B212058609868022188439860DF
:10001000D860186158612E4B002199600221596106
:100020000121F02299502B49196001219960352056
:1000300000F044F80222904214D00621196600F024
:1000400034F8196E01211966002018661A6600F04E
:100050002CF8196E196E196E052000F02FF8012189
:100060000842F9D1002199601B49196000215960AB
:100070001A491B48016001219960EB211966A021F2
:10008000196600F012F800219960164914480160C1
:100090000121996001BC002800D000471248134993
:1000A000086003C880F30888084703B5996A0420EC
:1000B0000142FBD001200142F8D103BD02B5186610
:1000C0001866FFF7F2FF186E186E02BD00000240BE
:1000D000000000180000070000035F00212200005C
:1000E000F4000018222000A00001001008ED00E03C
:1000F00000000000000000000000000074B24E7A12
:1001000000200420F7010010C3010010C5010010F9
:10011000C1010010C1010010C1010010C101001097
:10012000C1010010C1010010C1010010C701001081
:10013000C1010010C1010010C9010010CB01001065
:10014000CD010010CD010010CD010010CD01001037
:10015000CD010010CD010010CD010010CD01001027
:10016000CD010010CD010010CD010010CD01001017
:10017000CD010010CD010010CD010010CD01001007
:10018000CD010010CD010010CD010010CD010010F7
:10019000CD010010CD010010CD010010CD010010E7
:1001A000CD010010CD010010CD010010CD010010D7
:1001B000CD010010CD010010CD010010CD010010C7
:1001C00000BE00BE00BE00BE00BE00BE00F04BF888
:1001D000103800BEF2EB8871702E0010982E0010BF
:1001E0003402001090A31AE700202149086006C8D5
:1001F00081F3088810471F48006800282FD10DA4FC
:100200000ECC002902D000F012F8F9E71A491B4A77
:10021000002000E001C19142FCD1194988471949E9
:1002200088471949884700BEFDE701C901C29A42C3
:10023000FBD37047982E0010C00000201C07002040
:10024000F43400100000042000000420F4340010F6
:1002500000100420001004200000000070470B482C
:1002600002F02CF80047EFF30580C0B270470000A1
:1002700008ED00E0000000D020070020D4A00020FE
:100280008D1D0010550600107D1E001057560000F1
:1002900006005250ABB36053942D0010060052502C
:1002A000861C0302A42D0010060052505422A29D69
:1002B000B82D001005005250DE65F468F4340010CB
:1002C000F8B5C04610B5064C2378002B07D1054B76
:1002D000002B02D0044800E000BF0123237010BDB2
:1002E000200A002000000000702C0010044B10B504
:1002F000002B03D00349044800E000BF10BDC046F6
:1003000000000000240A0020702C0010F0B54F46B9
:10031000D6464646C0B5071E2BD0394A394B12780F
:100320009A4649081B68002A28D14000C019FF32AC
:100330003F250024944618180DE017000F3F092FA1
:100340004FD91E3A092A51D91C705C709C70033336
:10035000013198420BD02A000A40092AEDD86246A2
:100360001C705A709C70033301319842F3D153468C
:100370001860E0BCBA46B146A846F0BDFF24081894
:1003800084461A003F200025A14608E04C4615701F
:1003900054709570D57001310432614513D004005A
:1003A0000C40092CF2D90F267642B046A0444646AE
:1003B000092E0DD84C460131157055709470D570CA
:1003C00004326145EBD1B800181853461860D0E7E5
:1003D0001E3C092C0FD84C46557014709570D57082
:1003E000D9E762461C705C709A70B0E762465C7038
:1003F0001A709C70ABE7157055709570D570CAE790
:10040000CFA000207C3A0020F8B504000800642149
:1004100001F086FF002C22D01D4B1E4A1B78156868
:10042000002B1DD00023280000269C460B025B18E1
:100430001B025B1803701F0A1B0C8370634601319B
:100440004770C37001360430642903D1A64203D03B
:100450000021EBE7A642E9D1A4002C191460F8BDF5
:10046000600004192C190B025B181B025B182B701F
:10047000180A01311B0C6870AB700335642902D077
:10048000AC42F0D1EAE7AC42E8D00021EBE7C0464D
:10049000CFA000207C3A0020002210B5034B044876
:1004A0001A6002F0B5FB0020002110BDE03E0020E4
:1004B000E43E0020F0B5C646060000B54B071AD151
:1004C000002818D00023002498460C4D0C4F02F051
:1004D00053FB2B68020A5A70DA1C2A603A781870AB
:1004E000000C9870002A03D01A1D2A604246DA7068
:1004F0000134B442EBD180BCB846F0BD7C3A002058
:10050000CFA00020F8B5CE464746060080B54B0781
:1005100022D1002820D0124B0024984600230F2718
:100520009946104D02F028FB03003B405A425341CC
:100530002A685B42190A13701B0C937043461B78A0
:100540005170D11C2960002B03D0131D2B604B462A
:10055000D3700134B442E5D1C0BCB946B046F8BD51
:10056000CFA000207C3A0020A0220121F0B5194B39
:10057000D205D05885B001421DD0174FD1503C68EC
:10058000002C20D100F056FF060001F0C3F8C8226D
:1005900004000D000023520012196B4199420ED83D
:1005A0000BD001210291002101910C4930000091F2
:1005B00000F044FF386005B0F0BD9042F1D901224F
:1005C0005242D317EDE700F035FF210001F000F8AB
:1005D000D8E7C0460C040000E03E0020990400105B
:1005E00070B50C000500032002F0A6FA124A2300A1
:1005F000954200D00833114ADB031A43A02300219F
:1006000008200434A400DB052C1919605C60012467
:1006100098601A610A4B0B4A19605A600A4A9C603A
:100620000A491A61033000F0CDFB094B01210B2070
:100630001C6000F0ADFB70BD0000205019082000C8
:10064000400000503C00005019881F006905001050
:1006500004240050F0B5DE464E4645465746E0B508
:100660009BB002F011F95C4802F0D8F85B495C4895
:1006700002F074F906210500022000F017FB0621A4
:10068000032000F013FB01230222002154480093B1
:10069000013302F0C7F9002380221593F823520298
:1006A0005B0212921393C02310221B0312A916A8F7
:1006B000149301F07DFFEB1CEA011B03134316A901
:1006C000102212A8179301F073FF464B464A0520EB
:1006D0001492159301F050FD01F0E6FE434901F03C
:1006E000C8FE061C01F008FF84B20023002C0DD0C8
:1006F000200001F0D9FE011C301C01F0B4FE87215E
:10070000C90501F0CAFE01F0F7FEC3B224041B02C2
:100710002343334C2A0020000021129312AB02F035
:10072000C3F901222368012113432360304800F0FC
:10073000B9FC20000021FFF753FF00231193013380
:100740009A46032402F018FA044002F015FA430016
:1007500000D40DE202F010FA5346034200D00DE23D
:10076000244BE4001B19586802F058F80123224872
:100770000F9302F053F81F4B1B591093119B0A93D0
:10078000FA239B000E9300230B9309930C931B4BAE
:100790000A9D1B6829000293029A194B109C1A604B
:1007A0000022184B40201A70A047174B29001B68E5
:1007B00040200293029A124B00271A605246114BB6
:1007C0001A70A047114B124E1B6834009B460F4B0A
:1007D0000D965D685E4635E0902C0010E82C001008
:1007E000000020504200200800000E400024F44A7F
:1007F000E43E0020C82C0010782C001008020020D5
:100800007C3A0020CFA0002014020020200200200B
:10081000540A002002239B460293069304930393F9
:10082000079305939C4699469846022208936B6865
:100830009F4200D285E08023013730345B009F4225
:1008400000D1ECE030220021200001F0ABFE736803
:10085000BB42DFD93368B268DB5D5343099A1B0A98
:1008600053431A0AD6D05146114200D090E10222D9
:1008700093465A0A00D191E15146114200D090E1CD
:10088000022202929A0A00D191E15146114200D00F
:100890008FE102220692DA0A00D190E1514611421C
:1008A00000D092E1022204921A0B00D193E151464A
:1008B000114200D094E1022203925A0B00D195E13B
:1008C0005146114200D095E1022207929A0B00D1C5
:1008D00096E15146114200D095E102220592DA0BD1
:1008E00000D196E15146114200D094E10222944693
:1008F0001A0C00D195E15146114200D097E1022235
:1009000008925A0C00D198E15146114200D099E169
:10091000022291469A0C00D19AE15146114200D030
:100920009AE1022290460222DB0C00D17FE7514679
:10093000194200D17BE76B68216001329F4200D3EE
:1009400079E72B68A868DB5D434309981B0A43439A
:10095000180A00D16FE75146014201D05946E162C1
:10096000580A00D167E75146014201D00299A162BD
:10097000990A00D15FE75046084201D006996162AA
:10098000D90A00D157E75046084201D004992162A4
:10099000190B00D14FE75046084201D00399E1619D
:1009A000590B00D147E75046084201D00799A16191
:1009B000990B00D13FE75046084201D0059961618B
:1009C000D90B00D137E75046084201D0614621617A
:1009D000190C00D12FE75046084201D00899E16078
:1009E000590C00D127E75046084201D04946A16082
:1009F000990C00D11FE75046084201D04146616082
:100A0000DB0C00D117E75146194200D113E78023D0
:100A1000013722605B0030349F4200D012E70B9B0D
:100A200052469C460C9C534064449C465D000B938C
:100A3000954BC0220C9565449C462D0392012403DE
:100A40002035644465449446904B220063449C46A0
:100A50000D9EE868F36A0100184059400300D16216
:100A6000AF68B16A79404B409362B36A01403B4042
:100A70000B4319006F68706A784041405162716A97
:100A80000340394019430B002F68306A30357840F5
:100A900043401362336A01403B400B43F169080055
:100AA00058400B40D0611800B16948400B4090613C
:100AB000180071690B404840506118003169484086
:100AC000194010610800F36858401940D0600800D0
:100AD000B3681940584090600800736858400B4054
:100AE000316830364B405060136030326645B0D1CB
:100AF000674802F0A5F8674B674A10C330349A4242
:100B0000FAD180230021634ADB00D150634BDA63C2
:100B10000F9A0A9B944663440A93099B01331A0077
:100B2000099380239B009A4200D199E00E9B013BE0
:100B30000E93002B00D02AE60F9B119A19009C46B9
:100B4000DB005B1A1B015B1AD90062445B189B181F
:100B5000C0220021D2014C481193032401F022FD50
:100B600002F00AF8044002F007F8430000D5F1E56E
:100B700002F002F85346034200D17AE0484BE40009
:100B80001B19586801F04AFE002346480F93F0E510
:100B90000322E16293465A0A00D06DE602230293D3
:100BA0003BE60322A16202929A0A00D06DE602237C
:100BB00033E6032261620692DA0A00D06EE602236F
:100BC00004930393079305932CE603222162049276
:100BD0001A0B00D06BE6022303930793059321E6DB
:100BE0000322E16103925A0B00D069E602230793C6
:100BF000059317E60322A16107929A0B00D068E6DD
:100C0000022305930EE6032261610592DA0B00D000
:100C100068E6022306E60322216194461A0C00D0FE
:100C200069E602230222994698460893FFE50322CB
:100C3000E16008925A0C00D066E60223022299462F
:100C40009846F4E50322A16091469A0C00D064E630
:100C5000022302229846EAE503226160904662E69A
:100C60000E9B013B0E93002B00D165E700230993F7
:100C70008DE50B4BE4001B19586801F0CFFD0123F3
:100C80005B4209480F9374E5F43E0020540A0020AB
:100C9000E43E0020C83A0020C83E0020400000503A
:100CA000C82C0010702C0010842C0010094A8300FE
:100CB00094464022634410B51C68C0006240C024C2
:100CC00014408022520113431C60034B9C46604435
:100CD000416010BD04C0014000400140EFF31080AE
:100CE00072B6034A1368002BFCD0BFF35F8F7047C6
:100CF0002C0100D0BFF35F8F0022024B1A6080F3FB
:100D0000108870472C0100D070B5EFF3108C72B6CC
:100D10000D4D2B68002BFCD0BFF35F8F0724CB0851
:100D2000C618C05C01230C40A3401C0004400342D1
:100D300007D103433370BFF35F8F2C608CF31088AF
:100D400070BD100001F09CF82C0100D0024B186817
:100D50008007C00F7047C04600C006400021044B0A
:100D6000044ABFF35F8F02C39342FAD17047C04673
:100D7000000100D0800100D0044A1078431CDBB28F
:100D8000172B00D9102313707047C046280200208B
:100D900001238340002904D0034A1360034A1360EF
:100DA0007047034A1360FBE780E200E000E100E0E7
:100DB00080E100E0024B10309B688000C058704713
:100DC00000ED00E070B50D00EFF3108672B60F4A2B
:100DD0001368002BFCD0BFF35F8F0D4B10309B6866
:100DE00084001B590B4A934203D09D4201D001F06D
:100DF0005FF8074B9B681D51BFF35F8FBFF35F8F99
:100E00000022024B1A6086F3108870BD240100D0C6
:100E100000ED00E0CD010010F0B5DE4657464E462D
:100E20004546E0B50C0083B0EFF3108A72B65A4A1B
:100E30001368002BFCD0BFF35F8F102291468144D2
:100E40004A46564B96009B689D59554B98469D4285
:100E500005D0A54216D0534FEB1B2F2B14D94F4B67
:100E60009B689D51BFF35F8FBFF35F8F00224A4B9A
:100E70001A608AF3108803B0F0BCBB46B246A9469C
:100E8000A046F0BD1D00EAE7012383409B465A4679
:100E9000454B1B681A4000925A46444B1A60BFF3F8
:100EA0005F8FFFF7E0F90190002803D0814501D062
:100EB00000F0FEFF01232A009A4393689C4208D168
:100EC0005FE04B005B189B00FB189968A14211D0B2
:100ED0001A00062151560029F3DA009B002B05D099
:100EE0005A46334B1A60304B1A60B8E75A462F4BBC
:100EF0001A60B4E706215956002921DB4A00501830
:100F000080003C188046A0689860E079D87106207F
:100F100020569871002824DBA488F81A640524154B
:100F200044440019E0240005400D24022043988029
:100F30005218204B9200BF181A781970BA71CCE77A
:100F40000199002910D1FF3191711B4991801949F4
:100F50000A789A71194ADB1B5B415A43120D0A70D9
:100F6000BBE7BD200002E2E7154A1649D21A083A4B
:100F70005002400D01439980134952080A43DA8018
:100F8000ABE70621515613000029B7DA019A002A6F
:100F9000EAD14546DBE7C046240100D000ED00E081
:100FA000CD0100102C02002000E100E080E100E013
:100FB00080E200E0D0A0002000BDFFFFAAAA000050
:100FC0006602002000F0FFFF00F8FFFFF8B50125E2
:100FD00004000543FFF747F9EFF3108C72B6214A7E
:100FE0001368002BFCD0BFF35F8F1F4E2100B76842
:100FF0001E4A1F4B891A49414B431B0D59B28300AE
:10100000F858A8421CD00623D3568B421CD012237A
:10101000D3568B4222D01E23D3568B4220D02A2374
:10102000D35603208B4210D0124B1A781970A2713C
:10103000BFF35F8F00220B4B1A608CF31088F8BD52
:10104000B2680D48D050EFE7002043001B189B000A
:10105000D218FF239371094B9380E5E70120F4E751
:101060000220F2E7240100D000ED00E02C02002075
:10107000AAAA0000D0A00020CD01001000BDFFFFF3
:10108000054B064A1360064A136053609360D360B1
:1010900013615361936170478080808000E400E0B9
:1010A00004E400E070B504000E001500FFF764FED4
:1010B0000100200000F006F8A680E580BFF35F8FF6
:1010C00070BDC046024B9C46614489000160704778
:1010D0004000003483680B4810B584466144624484
:1010E000090112019A18591854684B6801209C4252
:1010F00001D802D00020C0B210BD12680B689A421D
:10110000F9D8F7E7FFFFFF0FF8B557464E464546BB
:10111000DE46E0B599460CAB1C780DAB1B7806009B
:1011200090469A460768002C11D1BC7B002C42D017
:1011300065003B682D19033D59194B78BB73002B93
:1011400000D1FB7300238B704B700B7004E06500C3
:101150003B682D19033D5919B2682A4B9446424603
:10116000E3181B0163441A604A465A600A9A9A605F
:101170000B9ADA6000238B704B700B707B7B9B4665
:10118000002B2BD022005946B8687B6898473A68F4
:10119000002816D05B4658465B005B445519033B5C
:1011A000A870D118D35C002B00D06B705B460C701C
:1011B0007B73A34513D0F0BCBB46B246A946A046FC
:1011C000F8BD5B465B005B44033BD3189C70511930
:1011D000525D002A00D05A705B460B707C73424609
:1011E0004B46307D00F0E6FA051E06D05346002B34
:1011F00003D12100306800F0FFFC0E9B002BDAD0F9
:101200001D70D8E7FFFFFF0FF0B5DE464E4657468C
:1012100045460023E0B58DB00A936B4B8200D3584E
:101220000B90994600239B464B46079300F072FAB9
:10123000079C06000F006268EFF3108572B6136812
:10124000002BFCD022000794BFF35F8F2468637BE0
:101250009946002B67D092685C4B90464B441B012B
:10126000984443461A685B6810001900801BB94116
:1012700000295FDD0B9800F09DFA002300269846B8
:1012800000279A46079C6368BFF35F8F5A461A602F
:1012900085F310885346002B08D10028C6D10DB025
:1012A000F0BCBB46B246A946A046F0BD0A9B4146EB
:1012B00018024B461843D047089009916268EFF333
:1012C000108572B61368002BFCD00794BFF35F8FB4
:1012D0000899099A002A48DB114303D0079B1B6930
:1012E000002B5DD1079B1B68D97B002907D04A00E2
:1012F000521819688C4649466244033A51704A466E
:10130000DA734B46079A013BD168CA5C0132CA5472
:101310005B46079A13615368BFF35F8F5A461A60A2
:1013200085F3108882E700230026984600279A4616
:101330000020A7E7002901D100289BD1002120002F
:1013400000F0DCFB43461E685F689B68079A9A467C
:101350004346DB689846D3684B44013B1B780A93AD
:101360001B020343136100208CE72369002BB9D0D3
:1013700033003C005B1A94411A002300A74219D89D
:101380009F421BD059460491012103914946029185
:1013900041460191514607980091FFF7B5FEB7E726
:1013A00000F0B8F9089A099B06000F0092197B41DA
:1013B0009942E5D901225242D317E3E79642E1D997
:1013C00001225242D317DDE7D03E0020FFFFFF0F7E
:1013D00010B5124C6368002B04D00A211048FFF7A7
:1013E00071FE10BD23000F4A1021206800F0A4FAFE
:1013F000032000F083F9032000F04CFA03200A498F
:1014000000F092F9FFF7B8FC084B9C4603236044B8
:101410002375074B80006060DC60DEE7740200200B
:10142000F03E0020D51000100912001040000034DA
:10143000D03E00200048704774020020F0B55746A7
:101440004E464546DE46E0B585B0019310AB1B78AD
:101450000600039300239A46984600927268EFF3C1
:10146000108972B61368002BFCD0BFF35F8F35680C
:10147000AC7B002C49D067002B683F19033FDB1978
:101480005A78AA73002A00D1EA73B1684F4A8C4691
:1014900000980199A21812016244106051600E99DF
:1014A00091600F99D16042469A705A701A706B7BA6
:1014B0009B46002B45D022001900A8686B6898470E
:1014C0002A68002830D05B4658465B005B44D71939
:1014D000033BB870D118D35C002B00D07B705B4607
:1014E0000C706B735C452DD0F3681B19013B1878A9
:1014F0007368BFF35F8F42461A6089F310885346C2
:10150000002B2CD10002204307E07368BFF35F8FEC
:101510001C6089F310880120404205B0F0BCBB4636
:10152000B246A946A046F0BD5B465B005B44033B68
:10153000D3189C70D119D25D002A00D05A705B4636
:101540000B706C73307D009A019B00F033F982467A
:101550000028C9D02100306800F04EFBC4E7039B8F
:10156000002B30D00E9B00200F99984703000400F9
:101570000D000B4327D000290DDA009801990200D5
:101580000B00121BAB41994213D818D00092019363
:10159000039B9A4662E700F0BDF802000B00A41816
:1015A0005D4100940195A94203D8F1D100998A4286
:1015B000EED901235B42DC1700930194E8E7009920
:1015C0009142E3D9F5E70020A7E7C046FFFFFF0FF0
:1015D00070B542680400EFF3108572B61368002BF3
:1015E000FCD0BFF35F8F2068CEB2437BB3420AD0FA
:1015F000FF230B405A00D318026894466344033B10
:101600009B78002B13D0E268FF2394460B40634481
:10161000013B0A0A1978D2B291420ED000206368C9
:10162000BFF35F8F00221A6085F3108870BD2269B6
:101630008A42F3D100202361F1E7310000F0DCFAA7
:10164000EDE7C046F0B5D6464F464646C0B5EFF387
:1016500005833F22134018001038EFF3108C72B648
:10166000204D2A68002AFCD0BFF35F8F01221100B1
:1016700081401D4C884661631C4917000E788A46DC
:101680003100C1400F400A4209D1BFF35F8F2F6084
:101690008CF31088E0BCBA46B146A846F0BD1449A8
:1016A0008200646A51588C420FD3124BD258434681
:1016B0009E4353461E70BFF35F8F00232B608CF355
:1016C0001088002AE6D09047E4E70B4A9B0090463A
:1016D00043441A681A60BFF35F8F00232B608CF3BA
:1016E0001088D7E7280100D000400540D1A0002095
:1016F000B4A00020440A0020D03F054010B50100EE
:10170000024A0348FFF700FB10BDC046F82C00104A
:10171000CEA00020034B596A0A00986A596A8A428F
:10172000FAD170470040054070B504000D00EFF39A
:10173000108672B61A4A1368002BFCD0BFF35F8F75
:10174000002D1BD02000FFF735FB164981420AD03F
:101750002000FFF737FB01212000FFF719FB0123D1
:10176000A340114A1360114BA400E550BFF35F8FF3
:1017700000220B4B1A6086F3108870BD0B4BA20041
:10178000D5500122A2400A4920000B7893430B70E8
:101790000449FFF741FB00212000FFF7F9FAE5E7D4
:1017A000280100D04516001038600540440A00208A
:1017B000D1A00020F0B54F46D6464646C0B507003A
:1017C0002F4C616A0D00A66A616AA942FAD18B4268
:1017D00008D805D00120E0BCBA46B146A846F0BD05
:1017E000B242F7D9EFF3108A72B626480168002991
:1017F000FCD0BFF35F8F0125BD402349204C8846B4
:10180000097889462943C9B28C464146604608702A
:10181000391D1E48890065630A51B9000B50216AC1
:101820000020294219D0616A0800A66A616A8142D3
:10183000FAD18B4219D801D1B24216D8CC451DD06D
:101840000F4B1F201D625D6301230740BB40104A00
:101850001E38136043464A461A70BFF35F8F00225A
:10186000084B1A608AF31088B5E70020BFF35F8F3A
:101870000022044B1A608AF31088ACE70120ECE7E1
:1018800000400540280100D0D1A00020B4A00020D5
:1018900080E200E0EFF3108C72B60A490B68002B6F
:1018A000FCD0BFF35F8F01238340074A07481362D0
:1018B00002789A430270BFF35F8F00230B608CF3B2
:1018C00010887047280100D000400540D1A00020BA
:1018D00070B5050014001600002915D00C00002A70
:1018E00012D080686B689847296800280ED0730072
:1018F0009B196200033B1219CB18033A9C7088189D
:101900008A5C002A15D10670200070BD63001B1987
:101910007200033B9219CB18033A9E7088188A5CB8
:10192000002A02D104703400EEE75A7004703400CB
:10193000EAE75A700670E7E730B583600023CCB25F
:1019400043730133047342608373C4730D000068F2
:10195000012C06D9421C0133DBB2137003329C42C6
:10196000F9D1FF2129404B005918002340180338B2
:10197000437030BDF8B5CE46474606000C0080B532
:10198000002907D04D0003686D18033D5A19577898
:10199000002F04D12000C0BCB946B046F8BD790084
:1019A000C91903398846434459788946002159703A
:1019B000517073683A0021008068984733680028A6
:1019C00014D042469A18947059195B5D002B00D0D0
:1019D00053700F70270049463000FFF7CBFF3900E6
:1019E00002003000FFF774FF0400D3E7424641468F
:1019F0005D19AF709A185B5C002B00D06B7014708F
:101A0000E9E7C046F0B557464546DE464E46E0B5E6
:101A10000D006B0001685B19DF1E0400C85D83B018
:101A20000192CA1900284CD043001B18033BCB1865
:101A30005E78B446002E16D1019E002E3ED0E67B85
:101A4000002E04D073009B19CB18033B5D70E57327
:101A500000282FD10023537003B0F0BCBB46B24620
:101A6000A946A046F0BD72006244033A89184A783C
:101A7000904600224A7091465A70010032002000C0
:101A8000FFF726FF43468246002B07D05B00216804
:101A90004344033BCB185A78002A16D1424651469C
:101AA0002000FFF715FF2168019BCA19002BC6D142
:101AB0000028CFD043001B18033BCB18002199709E
:101AC000C8E7019B002BBAD1C4E750008018033847
:101AD00009184878834648464870587041462000A7
:101AE000FFF7F6FE594680462000FFF743FF4146C8
:101AF00002002000FFF7ECFE8046CFE7F0B5574626
:101B00004546DE464E46E0B583B00191457B040074
:101B10006B0000685B19DF1EC15DC21900294ED041
:101B20004B005B18033BC3185E78B446002E18D1F7
:101B3000019E002E40D0E67B002E04D073009B193E
:101B4000C318033B5D70E573002931D100232800E1
:101B50005370617303B0F0BCBB46B246A946A046C1
:101B6000F0BD72006244033A801842789046002229
:101B7000427091465A7020003200FFF7A9FE43469A
:101B80008246002B07D05B0021684344033BCB18FF
:101B90005A78002A17D1424651462000FFF798FE96
:101BA000019B01002068C219002BC4D10029CDD0AF
:101BB0004B005B18033BC31800209870C6E7019BDD
:101BC000002BB8D1C2E750008018033809184878B4
:101BD000834648464870587041462000FFF778FE1B
:101BE000594680462000FFF7C5FE4146020020000E
:101BF000FFF76EFE8046CEE770B5040000292CD0BA
:101C0000437B8B422ED005684800401803382818C3
:101C10008278002A21D053009B18033BEA5CEE181F
:101C20008A4202D11BE0002A08D053009B18033BD4
:101C3000EB185A788A42F6D142785A700023012272
:101C4000837043702000FFF7DDFE617B02002000FF
:101C5000FFF73EFE6073012000E0002070BD437876
:101C60003370EBE701221900FFF7CCFE607301200F
:101C7000F4E7C04610B50400FFF77EF8010020002D
:101C8000FFF720FAFF232371BFF35F8F10BDC0461B
:101C900010B50400FFF770F801002000FFF712FAFA
:101CA000FF23A380BFF35F8F10BDC046F8B50400CB
:101CB00006200D0000F060FA002844D02A4B2B4982
:101CC000E21853425A418023DB039C469205284B7D
:101CD00062441A60274B1A6010008B689843FBD14E
:101CE000214B8021E3185A425341234A5B004900AB
:101CF0009952062000F040FA2900C00000F010FBC5
:101D0000C30921D140270121260080256162A362F9
:101D100000232C36AD0135432B60062000F02CFA51
:101D20003900800000F0FCFA6023E26A53406E2222
:101D30001A4080235B0133431A60104B2363102346
:101D40002B600D3BA364F8BD0D4A934203D90023D9
:101D50000C4F0D49D8E77F221040013040089F0109
:101D600019003F180300CFE70080FCBF00C000400F
:101D700000E0004000F00040C4A00020010300008B
:101D8000FEFF0000C0FF3F00FFFF00002C4B2D4A6C
:101D900070B51A602C4A2D4B2D491A6014008B68BF
:101DA0009C43FBD12B4D2C4EB54208D2013E761BF5
:101DB000B60808CD984723000134B342F9D100F0AA
:101DC0007DF8264A214B1A60214A9368DB43DB01E8
:101DD000DD09002BF9D14022214B224C224E9A677B
:101DE0005A671A67DA66B44208D223682000002BCB
:101DF00020D00834FFF74CFFB442F6D31B4E1C4CE6
:101E0000C022A168300000F0D3FBA660FEF7A6FF59
:101E1000FFF736F9FFF7DCFA164C174EB44208D23A
:101E2000013E361BB60808CC98472B0001359E4270
:101E3000F9D170BD0834FFF71DFFB442D5D3DDE7FB
:101E400000E00040BFCDFBFEFE7F3C0000F0004004
:101E500000C000400807002018070020FFFFFF0116
:101E600000F00140000700200807002000000020CB
:101E700000ED00E0180700201C07002000BEFDE771
:101E80000FB400B5084883B000F0C8FC049B002BD9
:101E900007D005A91800019100F0F0F9034800F0FF
:101EA000BDFC00BEFDE7C0461C2D00102C2D00100F
:101EB00010B50148FFF7E4FF302D001030B50C20BD
:101EC00083B000F0B7F9FEF741FF00280ED0944B25
:101ED000944A1A605A609A60DA601A615A619A618B
:101EE000DA611A62904A5A6203B030BD8F4CA06723
:101EF00000F0A8F901228E4B1A60636C012BFCD113
:101F000003228C4B1A60894A936B012BFCD101335D
:101F10000121894A89480093043300F033F90523ED
:101F2000874A00930121874800F02CF9864B5A68B4
:101F3000FF2A02D8802252005A608022784C7D4BC2
:101F400021691201804D1A60002905D0606900F0F6
:101F5000E7F901300138FDD1E0217B4B02201A68FE
:101F60001140802252012A43116019684840032120
:101F70000140116004219A681142FCD08022802126
:101F800092012A4309011160802252005A606F4B6E
:101F900023616F4B5968FF2900D85A600321644AB6
:101FA0006B4B116002399A681142FCD0E0201A682C
:101FB0001040802252011A431060186848400321E3
:101FC00001400220116062498A681042FCD08022E0
:101FD00092011343802212011A6080225D4B52004D
:101FE0004A6063615C4B5968FF2900D85A608022BF
:101FF0005A4BE1691201584D1A60002905D06069F9
:1020000000F08EF901300138FDD1E02252490B6811
:102010001A4080235B012B431A60802380229B019E
:102020002B4312011A6080223E4B52004A60E3614A
:102030004B4B5968FF2900D85A608022494B216ACE
:102040001201474D1A60002905D0606900F068F957
:1020500001300138FDD1E02241490B681A4080234C
:102060005B012B431A60802380229B012B431201CA
:102070001A60802380225B004B602A4BD2022362CD
:10208000394B5968914200D25A608022374B616ABD
:102090001201354D1A60002905D0606900F040F941
:1020A00001300138FDD1E0222F490B681A4080230E
:1020B0005B012B431A60802380229B012B4312017A
:1020C0001A608023DB024B60174B6362284B5A680F
:1020D000FF2A02D8802252005A608022254BA16933
:1020E0001201234D1A60002905D0606900F018F92B
:1020F00001300138FDD1E0221D490B681A408023D0
:102100005B012B431A60802380229B012B43120129
:102110001A6080235B004B600E4BA361E4E6C0466F
:10212000543A0020006CDC021BB700000080004025
:102130003CB0004030B00040002F685900800240A1
:10214000008C864700C0024030800040001BB70072
:102150003C800040405973075480004054B0004018
:102160006080004060B000406C8000406CB0004077
:102170004880004048B00040014B8000C058704784
:10218000543A0020F0B5C646040000B50C20904635
:102190001F000E0000F0C4F84101091A8D01691AF0
:1021A000C90009188901404600F0BAF8069B3F04AF
:1021B0001A0323681743002B22DB1A4B1A4DE2182F
:1021C00053425A4180235B019C461203174B6244E1
:1021D0001A60174B1A601100AB689943FBD1C022FB
:1021E000231D92011A4321232660A06013602368F7
:1021F000002BFCDA0823E760136080BCB846F0BD12
:102200003F2322681340B342D7D1A3681B051B0D9F
:102210008342D2D1EE22E368D2021340BB42CCD13A
:10222000EBE7C0460040FDBF00C0004000E00040BA
:1022300000F000408023024A9B000343D3627047B2
:1022400000800540AA23064A1B0113602F2305497D
:10225000D360054B19605368002BFCDA7047C04609
:102260000040024000B0FA000060024010B50028B3
:1022700000D110BD00F082FAFBE7C04610B5094A54
:102280000300146884B0002C08D001220091064895
:10229000524203A9A047012004B010BD00F0BEFACD
:1022A0000020F9E7CC3E00206D22001001480421F7
:1022B000014B1847A0020020DD220010142310B5A6
:1022C0000100188804331B88984710BD162310B5E9
:1022D0000100188802331B88984710BDF8B547469F
:1022E000CE4680B50F1E19D014239946043304003E
:1022F0000025012698464B461888434621681B88CE
:10230000984701C4431E9841013540420640AF4200
:10231000F1D13000C0BCB946B046F8BD0126F8E79F
:10232000114A936F9B0813D210665166002905D09D
:10233000FFE7FFE7FFE7516F106F704704B5002814
:1023400001D00020C04300F073FC002104BDC04652
:10235000F0B5146E556E576F166FFFF7E5FF1466F4
:10236000556657671667F0BD000000D0132370B59F
:102370001D78012D15D010DD1C48FFF7A7FF1C4C60
:1023800001008022200000F013F9022D06D0194828
:10239000FFF794FF184B186070BD154C174BA364E2
:1023A000F5E7164B124C23606360A360E360236182
:1023B0006361A361E36123626362A362E3622363F7
:1023C0006363A363E36323646364A364E3642365D7
:1023D0006365A365E36523666366A366E3662367B7
:1023E0006367A367E367A364D1E7C0465344000073
:1023F000200800204C330000EC3E00200124001097
:1024000007B5604601880A0A0230DF2AFAD1C9B24C
:10241000820804D3028840880004104300E000686A
:10242000014A5050039007BD200800205143434308
:10243000C9188C46110C83B24B4310B4040C614391
:1024400092B280B2504362431C041B0C001910BCB2
:1024500059411304120CC0185141614470470000E7
:102460004840414048400E4B5B6818470C4B1B6886
:1024700018470C4A936F9B0802D2094BDB68184738
:10248000F0B5146E556E576F166FFFF7F6FF054ADD
:102490001466556657671667F0BD014B9B68184771
:1024A00020090020000000D0491A002808D1084661
:1024B00070470000C10FC90700D54042002817D05F
:1024C000F44603B40B4B1B68984706BC81409E380A
:1024D0004042803107D20B0607D04900490AC005A7
:1024E0001043084360470130F8E7490A8902F5E7DD
:1024F00070470000EC3E0020014B5B6A184700006B
:1025000020090020132310B512481C78FFF7DEFEC7
:102510000100012C0AD003DD80220F4800F048F8AA
:102520000E48FFF7CBFE0E4B186010BD0A4C54222C
:10253000200000F03DF80B4B6365A365E36523665F
:102540006366A366E36623676367A367E367236243
:10255000E361E5E753460000200900204C3300000A
:10256000EC3E00206925001007B5604601880A0A84
:102570000230DF2AFAD1C9B2820804D30288408827
:102580000004104300E00068014A5050039007BD6A
:102590002009002001480421014B1847B002002007
:1025A000DD220010014B1B6818470000B00200201C
:1025B000014B5B6818470000B0020020030010B513
:1025C000080011001B68984710BDC046F0B546468C
:1025D0004F46D646C0B5437C80460E001700002B00
:1025E00046D0002A3FDD4B1E9946244B012500248E
:1025F00000209A460DE04B461B5D0D3B5A4253416D
:10260000325DDBB20A2A0BD02B00013401359F4228
:102610001ADD002CEFD14346325D1B7C0A2AF3D130
:10262000002BF1D1A04204DA4346211A1B6830186E
:102630009847434650461B680221984701342800BA
:102640002B0001359F42E4DC874204DD4346391A02
:102650001B6830189847F619013E33780D3B5A42F3
:10266000534142461374E0BCBA46B146A846F0BD99
:102670000368110030009847F5E7C046F42D0010BC
:10268000F0B557464E464546DE461C00D023E0B521
:102690001B061F68344B83B006000D00180001A90B
:1026A00091469A4600F0D4FA8046002808D1019B52
:1026B0007FB29F4204D0504600F0D2FA01239846E0
:1026C0006B1C03D1300000F071FA0500002C27D1FB
:1026D000264F274B1C68002C18D04B46002B21D1CD
:1026E000244B994602E0E468002C0FD02368002BAD
:1026F000F9D04B461B68002B01D0A342F3D1200038
:102700002A003100B847E468002CEFD14346002B83
:1027100025D103B0F0BCBB46B246A946A046F0BDE9
:10272000154FD6E7134B99460A239B4602E0E4680F
:10273000002CEBD02368002BF9D04B461B68002BF4
:1027400001D0A342F3D12A0031002000B8475A46F5
:102750006B4620001A7101A90122B847E7E75046ED
:1027600000F05EFAD5E7C04600070020CD25001036
:10277000C03A0020C43A0020BD250010F0B5CE4676
:10278000474680B583B06B46DE1CD02330701B06F5
:102790001C681F4B804601A91800994600F058FAA2
:1027A000071E20D01B4B1C68002C28D01A4D02E0BD
:1027B000E468002C0FD02368002BF9D02B68002B85
:1027C00001D0A342F4D1200001223100FFF7FEFE28
:1027D000E468002CEFD1002F11D1404603B0C0BCFB
:1027E000B946B046F0BD019B64B29C420BD048464E
:1027F00000F036FA074B01271C68002CD6D148465A
:1028000000F00EFAE9E7034B1C68002CCED1E4E798
:1028100000070020C03A0020C43A002070B5040030
:1028200000F0C4F900230100050001222000FFF799
:1028300027FF084B1C68002C06D06368002B05D0CE
:102840009847E468002CF8D1280070BDE468002C9B
:10285000F3D1F9E7C03A00200A4A1368002B05D1EA
:102860000CE01A00DB680C32002B07D09842F8D13C
:10287000002902D1C3681360C16070470029FCD0F1
:102880001060FAE7C03A002010B500F043F810BD20
:10289000F0B50D1E15DD0E4B0D271A680D4B4519B1
:1028A000D31859424B410C495B005E5E20210478ED
:1028B000A64207D093691942FCD101301460A842A6
:1028C000F5D1F0BD93691942FCD11760F2E7C0461B
:1028D000C8A000200080FCBFC4A0002030B50400C8
:1028E0000D1E12DD00201021094B013C1A6893696E
:1028F000194208D1013093691942FCD1136823545D
:102900008542F4D130BD0028FCD103204042F9E7D4
:10291000C8A00020E12110B50B4B0C481B780C4BD4
:1029200049021B780B4B1860FFF7C0F90221002009
:10293000FEF7BCF902210120FEF7B8F90121064893
:10294000FFF78AFF10BDC046902E001000400340E4
:10295000942E0010C8A00020C0020020F0B5D6467A
:102960004F4646468846C0B505240600FEF7B6F930
:1029700043461F791C57284B8146F0184342584163
:10298000264B9A4683009C4653466246985801223D
:102990002023BA40DB1B013A002C32DB9C422DDCA9
:1029A000A2401500104229D1002F1AD043465A7870
:1029B00019781202114342469B78D2781B040B43CC
:1029C00012061A439046002241465300C95A4B0B47
:1029D00000D10919131912339B0001329951974202
:1029E000F2D85346624605439D504846FEF782F9A9
:1029F0002000E0BCBA46B146A846F0BD0848FFF743
:102A00003FFA002B02DAF9E7013BF7D315009D40AE
:102A10001C000542F8D1C7E70000D0AF3C0A0020F7
:102A2000382E0010F0B54E464546DE4657468A46DB
:102A30004900E0B50D0080465544ED004544894607
:102A4000290009AC2678DC31741EA641086874425E
:102A5000844614481F26834626405E44052B0CD925
:102A6000A0201F274005D835540104430532053BFB
:102A70000C603A402E60052BF6D849465144C900F7
:102A8000414452019B0613430A000800DC321360E4
:102A90006346D83006601360F0BCBB46B246A94618
:102AA000A046F0BD80E00000F0B501258D4004682F
:102AB000AC434D0004606C18E40004192600C836CD
:102AC000002B2AD01F68DC3437605F6877609F680E
:102AD000DB68B76023606D18EB001D008024D035E3
:102AE000451964012C4380252D0625602560114C75
:102AF0000D1D8C40846001242700AF403D0008314B
:102B00008C401F2106680A403543056005682C4348
:102B10000460C018D8300260F0BD80277F023760A3
:102B2000F8277F027760C027DC343F03B76023605B
:102B3000D1E7C04601010101F0B5C646040000B569
:102B4000002812D00A4B002501269846094F02E0C2
:102B50000135640809D02642FAD0290042463800DF
:102B6000FEF7D2F801356408F5D180BCB846F0BD57
:102B70004C2E0010CCA00020094B10B51C68094A4F
:102B8000A83420686168084BFFF750FC012200233D
:102B900080185941206061604800400810BDC0465F
:102BA000D40200202D7F954C2DF4515810B5830789
:102BB0000AD00300032102E001330B4205D01A784A
:102BC000002AF9D1181A10BD030019680C4A0D4CDF
:102BD0008A188A4322420FD15968094A04338A1855
:102BE0008A43224208D15968054A04338A188A4325
:102BF0002242F1D000E001331A78002AFBD1E1E74C
:102C0000FFFEFEFE80808080F8B5C0460000000018
:102C100001B40248844601BC604700BF05010020A2
:102C200001B40248844601BC604700BFDD010020BA
:102C300001B40248844601BC604700BF0502002081
:102C400001B40248844601BC604700BFC1000020B7
:102C500001B40248844601BC604700BF99010020CE
:102C600001B40248844601BC604700BF5101002006
:102C7000287374696C6C290028666F7277617264BE
:102C800029000000286261636B776172642900008B
:102C900057533238313220706172616C6C656C0050
:102CA000536E616B6573210052616E646F6D2064B9
:102CB00061746100537061726B6C65730000000099
:102CC00047726579730000000D030010A02C0010FE
:102CD000B5040010A82C001005050010B42C00103D
:102CE00009040010C02C0010F02C001004FF00009C
:102CF00020600BA101A403A1486172647761726531
:102D000020616C61726D20256420616C7265616464
:102D10007920636C61696D65640000000A2A2A2AC3
:102D20002050414E4943202A2A2A0A000A00000066
:102D300048617264206173736572740052656C65DA
:102D400061736500626F6F74325F7732357130384E
:102D50003000000068747470733A2F2F67697468CC
:102D600075622E636F6D2F72617370626572727916
:102D700070692F7069636F2D6578616D706C657314
:102D80002F747265652F484541442F77733238316F
:102D900032000000312E342E300000007069636F65
:102DA0000000000070696F5F7773323831325F70F6
:102DB0006172616C6C656C004E6F7620313620322A
:102DC0003032320006005250BBFF3CB69C2D001042
:102DD000060052509A235618542D001006005250E7
:102DE000E182887F442D001006005250D3F07542D6
:102DF0003C2D00100D0A000055415254207374649C
:102E0000696E000055415254207374646F757400EC
:102E10005541525420737464696E202F207374647A
:102E20006F7574000600525053B4F4A1102E0010B8
:102E300008005250920000004E6F2070726F67724F
:102E4000616D20737061636500000000444D412096
:102E50006368616E6E656C20256420697320616C07
:102E6000726561647920636C61696D65640000005E
:102E7000B4020010A80200109C020010C42D001023
:102E800090020010D02D0010DC2D0010E82D001055
:082E9000242E0010302E00106A
:102E980010B5002406E00368BFF35F8F1C6081F360
:102EA800108820BF0268EFF3108172B61368002BF8
:102EB800FCD0BFF35F8F0422835E002BEBDD013B68
:102EC80083800368BFF35F8F00221A6081F3108844
:102ED80010BDC04610B50268EFF3108172B61368D2
:102EE800002BFCD0BFF35F8F0422835E0624025FB1
:102EF8009A420BDD013383800368BFF35F8F0022A2
:102F08001A6081F3108840BF012010BD0368BFF329
:102F18005F8F00221A6081F310880020F5E7C04611
:102F2800D02330B500251B0600245D5706E0036852
:102F3800BFF35F8F1C6081F3108820BF0268EFF336
:102F4800108172B61368002BFCD0BFF35F8F037932
:102F58007F2BECD905710368BFF35F8F00221A60DD
:102F680081F3108830BDC04603000068EFF3108C71
:102F780072B60268002AFCD0BFF35F8F04229A560B
:102F8800002A0BDB00290FD000200A601B68BFF362
:102F98005F8F00221A608CF310887047D0221206C7
:102FA800126801201A71F1E70020EFE70268EFF3D9
:102FB800108172B61368002BFCD0BFF35F8FFF231C
:102FC80003710368BFF35F8F00221A6081F31088D2
:102FD80040BF70477047C046F49E0020C000000004
:102FE80040000000B49F0020000100000001000024
:102FF8000802002014020020100000000000000059
:1030080000000100000000000000000000000200B5
:1030180000000000000000000000030000000000A5
:10302800000000000000FF000000000000B5486834
:1030380001318E460047704609380149884700BD6E
:10304800CD0F00108C020020000000002007002097
:10305800803A00200000000000000000903A0020A4
:103068000000000000000000100000000000000048
:10307800503300004C33000054330000523300003A
:103088004D5300004D43000053340000433400000A
:103098009128001000000000DD280010000000004A
:1030A80000010000D802002000000000C405002034
:1030B8002C060020940600200000000000000000FC
:1030C80000000000000000000000000000000000F8
:1030D80000000000000000000000000000000000E8
:1030E80000000000000000000000000000000000D8
:1030F80000000000000000000000000000000000C8
:1031080000000000000000000000000000000000B7
:1031180000000000000000000000000000000000A7
:103128000000000000000000000000000000000097
:103138000000000000000000000000000000000087
:103148000000000000000000000000000000000077
:1031580001000000000000000E33CDAB34126DE614
:10316800ECDE05000B00000000000000000000007D
:103178000000000000000000000000000000000047
:103188000000000000000000000000000000000037
:103198000000000000000000000000000000000027
:1031A8000000000000000000000000000000000017
:1034D800000000000000000095250010AD2200103B
:0C34E8006D23001005250010ED020010FF
:04000005100001E9FD
:00000001FF
